:040000005AEF3FF084
:107EB000B1EF3FF0720ED36E0F0EC16E006B016B0F
:107EC000056B010E076F956A8C6A010E8C6E9380AC
:107ED0009382F19CF292F288F28EBEEC3FF0005158
:107EE000030B006F00510CE0010E00637AEF3FF0CE
:107EF0008AEF3FF0020E0063A4EF3FF099EF3FF0EE
:107F0000D2EC3FF08C368C500F0B02E1010E8C6EE0
:107F10006DEF3FF0D2EC3FF0055105E08C328CB0B4
:107F2000056B6DEF3FF08C368CB6010E056F6DEF73
:107F30003FF0D2EC3FF08C2A8C500F0B8C6E8C50A3
:107F400001E18C6A6DEF3FF0D2EC3FF08C50090AF2
:107F500004E0090E8C6E6DEF3FF0060E8C6E6DEF37
:107F60003FF0F2A21000F5EC3FF081B0BCEF3FF023
:107F7000002B8C6A010E8C6EF292100081B2CFEF52
:107F80003FF0F5EC3FF081B21200075107E0076BBC
:107F9000012B030E0163CEEF3FF0016B1200010EC7
:107FA000076F12000051066F01510AE0010E0163D4
:107FB000DDEF3FF0040EE1EF3FF0010EE1EF3FF0A7
:107FC000080E026FC80E036FC80E046FBEEC3FF0C0
:107FD000005106631200042FE6EF3FF0032FE4EF99
:107FE0003FF0022FE2EF3FF01200640E086FC80E60
:107FF000036F032FF9EF3FF0082FF7EF3FF0120068
:020000040030CA
:0400000000081E1EB8
:02000500018177
:060008000FC00FE00F40E5
:00000001FF
