:08000800C2EF3FF086EF3FF06C
:107F0C008C6A836A956A93809382036A006A016A19
:107F1C00046A056A066A010E026E870ED56E630E40
:107F2C00D76EC00ED66EF28AF28EF288F19CF08675
:107F3C00F19E04A09FEF3FF004900050000808E071
:107F4C00005001080DE00050020812E0C1EF3FF0B4
:107F5C0002508C6E0246100E0264010E026E12006C
:107F6C0002508C6E0242000E0260080E026E12006D
:107F7C000A0E8C6E12008C1EF2B4CCEC3FF0F2B8F0
:107F8C00EAEC3FF0F0B6F6EC3FF01000F294630E22
:107F9C00D76EC00ED66E032A0550D8B4D7EF3FF07B
:107FAC0005060650D8B4DCEF3FF0060601B0E4EF4E
:107FBC003FF01E0E03641200E7EF3FF00A0E03645D
:107FCC001200036A04801200F2980550D8B4F0EF46
:107FDC003FF01200002A040E0062050E056E12001E
:107FEC00F0960650D8B4FCEF3FF01200011E050EBF
:047FFC00066E1200FB
:020000040030CA
:0400000000081F1EB7
:020005008181F7
:060008000FC00FE00F40E5
:00000001FF
