:08000800D8EF3FF09AEF3FF042
:107F34008C6A836A956A93809382036A006A016AF1
:107F4400046A056A066A010E026E870ED56E630E18
:107F5400D76EC00ED66EF28AF28EF288F19CF0864D
:107F6400F19E04A0B3EF3FF004900050000808E035
:107F7400005001080EE00050020814E0D7EF3FF073
:107F840002508C6E0246100E02621200010E026E46
:107F9400120002508C6E0242000E02621200080EA1
:107FA400026E12000A0E8C6E12008C1EF2B4E2EC09
:107FB4003FF0F2B8F6EC3FF0F0B6FDEC3FF0100005
:107FC400F294630ED76EC00ED66E032A01B0F0EFA2
:107FD4003FF01E0E03641200F3EF3FF00A0E036439
:107FE4001200036A04801200F298002A040E006250
:0C7FF4001200006A1200F096011E12003C
:020000040030CA
:0400000000081F1EB7
:020005008181F7
:060008000FC00FE00F40E5
:00000001FF
