:0400000070EF3FF06E
:107EDC00EDEF3FF0720ED36ED3A4FED7F00E956E7D
:107EEC008C6A9380F18EF19CF292F288F28E006A89
:107EFC00016A010E8C6E8DEC3FF0200E036EFF0EAE
:107F0C00026E022EFED7032EFAD7012AF4D70050A8
:107F1C000AE000041DE00028005002082EE000508A
:107F2C0003084CE012000150030B09E0015001085A
:107F3C0009E00150020809E0080E8C6E1200010ED7
:107F4C008C6E1200020E8C6E1200040E8C6E1200DF
:107F5C000150030B09E00150010809E0015002082F
:107F6C0009E0010E8C6E1200080E8C6E1200040ECD
:107F7C008C6E1200020E8C6E12000150050B0FE07D
:107F8C00015001080FE0015002080FE001500308F6
:107F9C000FE0015004080FE0030E8C6E1200010E6E
:107FAC008C6E1200030E8C6E1200070E8C6E12007B
:107FBC000F0E8C6E1200070E8C6E12000150010B0E
:107FCC0003E0060E8C6E1200090E8C6E1200F2A2EB
:107FDC001000F292002A0050040801E3006A016AC2
:107FEC008C6A100E036EFF0E026E022EFED7032E4D
:047FFC00FAD71000A0
:020000040030CA
:0400000000081E1EB8
:02000500018177
:060008000FC00FE00F40E5
:00000001FF
